{
  "contractName": "ChargCoinService",
  "abi": [
    {
      "constant": true,
      "inputs": [
        {
          "name": "",
          "type": "uint16"
        }
      ],
      "name": "services",
      "outputs": [
        {
          "name": "",
          "type": "string"
        }
      ],
      "payable": false,
      "stateMutability": "view",
      "type": "function"
    },
    {
      "constant": true,
      "inputs": [],
      "name": "servicesCount",
      "outputs": [
        {
          "name": "",
          "type": "uint16"
        }
      ],
      "payable": false,
      "stateMutability": "view",
      "type": "function"
    },
    {
      "constant": true,
      "inputs": [],
      "name": "minCoinsBalance",
      "outputs": [
        {
          "name": "",
          "type": "uint256"
        }
      ],
      "payable": false,
      "stateMutability": "view",
      "type": "function"
    },
    {
      "constant": true,
      "inputs": [
        {
          "name": "",
          "type": "bytes32"
        }
      ],
      "name": "serviceActions",
      "outputs": [
        {
          "name": "started",
          "type": "uint256"
        },
        {
          "name": "finished",
          "type": "uint256"
        },
        {
          "name": "stopable",
          "type": "bool"
        },
        {
          "name": "node",
          "type": "address"
        },
        {
          "name": "payer",
          "type": "address"
        },
        {
          "name": "serviceRate",
          "type": "uint256"
        },
        {
          "name": "serviceId",
          "type": "uint16"
        },
        {
          "name": "feedbackRate",
          "type": "uint8"
        },
        {
          "name": "feedbackText",
          "type": "string"
        }
      ],
      "payable": false,
      "stateMutability": "view",
      "type": "function"
    },
    {
      "constant": true,
      "inputs": [
        {
          "name": "",
          "type": "address"
        },
        {
          "name": "",
          "type": "uint16"
        }
      ],
      "name": "nodeService",
      "outputs": [
        {
          "name": "allowed",
          "type": "bool"
        },
        {
          "name": "rate",
          "type": "uint256"
        },
        {
          "name": "maxTime",
          "type": "uint256"
        },
        {
          "name": "stopable",
          "type": "bool"
        }
      ],
      "payable": false,
      "stateMutability": "view",
      "type": "function"
    },
    {
      "constant": true,
      "inputs": [],
      "name": "minBridgeValue",
      "outputs": [
        {
          "name": "",
          "type": "uint256"
        }
      ],
      "payable": false,
      "stateMutability": "view",
      "type": "function"
    },
    {
      "constant": true,
      "inputs": [],
      "name": "owner",
      "outputs": [
        {
          "name": "",
          "type": "address"
        }
      ],
      "payable": false,
      "stateMutability": "view",
      "type": "function"
    },
    {
      "constant": true,
      "inputs": [],
      "name": "networkId",
      "outputs": [
        {
          "name": "",
          "type": "uint64"
        }
      ],
      "payable": false,
      "stateMutability": "view",
      "type": "function"
    },
    {
      "constant": true,
      "inputs": [
        {
          "name": "",
          "type": "uint64"
        }
      ],
      "name": "chains",
      "outputs": [
        {
          "name": "active",
          "type": "bool"
        },
        {
          "name": "networkName",
          "type": "string"
        }
      ],
      "payable": false,
      "stateMutability": "view",
      "type": "function"
    },
    {
      "constant": true,
      "inputs": [
        {
          "name": "",
          "type": "address"
        }
      ],
      "name": "registeredNodes",
      "outputs": [
        {
          "name": "registered",
          "type": "bool"
        },
        {
          "name": "authorized",
          "type": "bool"
        },
        {
          "name": "latitude",
          "type": "int128"
        },
        {
          "name": "longitude",
          "type": "int128"
        },
        {
          "name": "name",
          "type": "string"
        },
        {
          "name": "phone",
          "type": "string"
        },
        {
          "name": "location",
          "type": "string"
        },
        {
          "name": "connector",
          "type": "string"
        },
        {
          "name": "power",
          "type": "string"
        }
      ],
      "payable": false,
      "stateMutability": "view",
      "type": "function"
    },
    {
      "constant": true,
      "inputs": [],
      "name": "maxBridgeValue",
      "outputs": [
        {
          "name": "",
          "type": "uint256"
        }
      ],
      "payable": false,
      "stateMutability": "view",
      "type": "function"
    },
    {
      "constant": true,
      "inputs": [
        {
          "name": "",
          "type": "address"
        }
      ],
      "name": "balance",
      "outputs": [
        {
          "name": "",
          "type": "uint256"
        }
      ],
      "payable": false,
      "stateMutability": "view",
      "type": "function"
    },
    {
      "constant": true,
      "inputs": [
        {
          "name": "",
          "type": "bytes32"
        }
      ],
      "name": "swaps",
      "outputs": [
        {
          "name": "",
          "type": "bool"
        }
      ],
      "payable": false,
      "stateMutability": "view",
      "type": "function"
    },
    {
      "constant": true,
      "inputs": [
        {
          "name": "",
          "type": "address"
        },
        {
          "name": "",
          "type": "bytes32"
        }
      ],
      "name": "nodeParameters",
      "outputs": [
        {
          "name": "",
          "type": "string"
        }
      ],
      "payable": false,
      "stateMutability": "view",
      "type": "function"
    },
    {
      "constant": true,
      "inputs": [
        {
          "name": "",
          "type": "address"
        }
      ],
      "name": "isValidator",
      "outputs": [
        {
          "name": "",
          "type": "bool"
        }
      ],
      "payable": false,
      "stateMutability": "view",
      "type": "function"
    },
    {
      "inputs": [
        {
          "name": "_networkId",
          "type": "uint64"
        }
      ],
      "payable": false,
      "stateMutability": "nonpayable",
      "type": "constructor"
    },
    {
      "payable": true,
      "stateMutability": "payable",
      "type": "fallback"
    },
    {
      "anonymous": false,
      "inputs": [
        {
          "indexed": true,
          "name": "addr",
          "type": "address"
        },
        {
          "indexed": true,
          "name": "latitude",
          "type": "int128"
        },
        {
          "indexed": true,
          "name": "longitude",
          "type": "int128"
        },
        {
          "indexed": false,
          "name": "name",
          "type": "string"
        },
        {
          "indexed": false,
          "name": "location",
          "type": "string"
        },
        {
          "indexed": false,
          "name": "phone",
          "type": "string"
        },
        {
          "indexed": false,
          "name": "connector",
          "type": "string"
        },
        {
          "indexed": false,
          "name": "power",
          "type": "string"
        }
      ],
      "name": "NodeRegistered",
      "type": "event"
    },
    {
      "anonymous": false,
      "inputs": [
        {
          "indexed": false,
          "name": "sender",
          "type": "address"
        },
        {
          "indexed": false,
          "name": "CoinValue",
          "type": "uint256"
        },
        {
          "indexed": false,
          "name": "CoinBalance",
          "type": "uint256"
        }
      ],
      "name": "DepositCoins",
      "type": "event"
    },
    {
      "anonymous": false,
      "inputs": [
        {
          "indexed": false,
          "name": "sender",
          "type": "address"
        },
        {
          "indexed": false,
          "name": "CoinValue",
          "type": "uint256"
        },
        {
          "indexed": false,
          "name": "CoinBalance",
          "type": "uint256"
        }
      ],
      "name": "WithdrawCoins",
      "type": "event"
    },
    {
      "anonymous": false,
      "inputs": [
        {
          "indexed": true,
          "name": "nodeAddr",
          "type": "address"
        },
        {
          "indexed": true,
          "name": "payer",
          "type": "address"
        },
        {
          "indexed": false,
          "name": "paymentHash",
          "type": "bytes32"
        },
        {
          "indexed": false,
          "name": "serviceId",
          "type": "uint16"
        },
        {
          "indexed": false,
          "name": "chgAmount",
          "type": "uint256"
        },
        {
          "indexed": false,
          "name": "serviceTime",
          "type": "uint256"
        },
        {
          "indexed": false,
          "name": "finished",
          "type": "uint256"
        }
      ],
      "name": "ServiceOn",
      "type": "event"
    },
    {
      "anonymous": false,
      "inputs": [
        {
          "indexed": true,
          "name": "nodeAddr",
          "type": "address"
        },
        {
          "indexed": true,
          "name": "payer",
          "type": "address"
        },
        {
          "indexed": false,
          "name": "paymentHash",
          "type": "bytes32"
        },
        {
          "indexed": false,
          "name": "serviceId",
          "type": "uint16"
        },
        {
          "indexed": false,
          "name": "chgAmount",
          "type": "uint256"
        },
        {
          "indexed": false,
          "name": "serviceTime",
          "type": "uint256"
        },
        {
          "indexed": false,
          "name": "finished",
          "type": "uint256"
        }
      ],
      "name": "ServiceOff",
      "type": "event"
    },
    {
      "anonymous": false,
      "inputs": [
        {
          "indexed": true,
          "name": "nodeAddr",
          "type": "address"
        },
        {
          "indexed": true,
          "name": "payer",
          "type": "address"
        },
        {
          "indexed": false,
          "name": "paymentHash",
          "type": "bytes32"
        },
        {
          "indexed": false,
          "name": "serviceId",
          "type": "uint16"
        },
        {
          "indexed": false,
          "name": "feedbackRate",
          "type": "uint8"
        }
      ],
      "name": "Feedback",
      "type": "event"
    },
    {
      "anonymous": false,
      "inputs": [
        {
          "indexed": true,
          "name": "from",
          "type": "address"
        },
        {
          "indexed": true,
          "name": "to",
          "type": "address"
        },
        {
          "indexed": false,
          "name": "value",
          "type": "uint256"
        },
        {
          "indexed": false,
          "name": "chainId",
          "type": "uint64"
        },
        {
          "indexed": false,
          "name": "chainHash",
          "type": "bytes32"
        }
      ],
      "name": "Swap",
      "type": "event"
    },
    {
      "anonymous": false,
      "inputs": [
        {
          "indexed": true,
          "name": "txHash",
          "type": "bytes32"
        },
        {
          "indexed": true,
          "name": "account",
          "type": "address"
        },
        {
          "indexed": false,
          "name": "value",
          "type": "uint256"
        }
      ],
      "name": "Validated",
      "type": "event"
    },
    {
      "constant": false,
      "inputs": [
        {
          "name": "newOwner",
          "type": "address"
        }
      ],
      "name": "setOwner",
      "outputs": [],
      "payable": false,
      "stateMutability": "nonpayable",
      "type": "function"
    },
    {
      "constant": false,
      "inputs": [
        {
          "name": "name",
          "type": "string"
        }
      ],
      "name": "addService",
      "outputs": [],
      "payable": false,
      "stateMutability": "nonpayable",
      "type": "function"
    },
    {
      "constant": false,
      "inputs": [
        {
          "name": "latitude",
          "type": "int128"
        },
        {
          "name": "longitude",
          "type": "int128"
        },
        {
          "name": "name",
          "type": "string"
        },
        {
          "name": "location",
          "type": "string"
        },
        {
          "name": "phone",
          "type": "string"
        },
        {
          "name": "connector",
          "type": "string"
        },
        {
          "name": "power",
          "type": "string"
        },
        {
          "name": "chargRate",
          "type": "uint256"
        },
        {
          "name": "parkRate",
          "type": "uint256"
        },
        {
          "name": "inetRate",
          "type": "uint256"
        }
      ],
      "name": "registerNode",
      "outputs": [],
      "payable": false,
      "stateMutability": "nonpayable",
      "type": "function"
    },
    {
      "constant": false,
      "inputs": [
        {
          "name": "parameterHash",
          "type": "bytes32"
        },
        {
          "name": "parameterValue",
          "type": "string"
        }
      ],
      "name": "setNodeParameter",
      "outputs": [],
      "payable": false,
      "stateMutability": "nonpayable",
      "type": "function"
    },
    {
      "constant": false,
      "inputs": [
        {
          "name": "serviceId",
          "type": "uint16"
        },
        {
          "name": "allowed",
          "type": "bool"
        },
        {
          "name": "stopable",
          "type": "bool"
        },
        {
          "name": "rate",
          "type": "uint256"
        },
        {
          "name": "maxTime",
          "type": "uint256"
        }
      ],
      "name": "setupNodeService",
      "outputs": [],
      "payable": false,
      "stateMutability": "nonpayable",
      "type": "function"
    },
    {
      "constant": false,
      "inputs": [
        {
          "name": "addr",
          "type": "address"
        },
        {
          "name": "authorized",
          "type": "bool"
        }
      ],
      "name": "modifyNodeAuthorization",
      "outputs": [],
      "payable": false,
      "stateMutability": "nonpayable",
      "type": "function"
    },
    {
      "constant": false,
      "inputs": [
        {
          "name": "_newValue",
          "type": "uint256"
        }
      ],
      "name": "setMinCoinsBalance",
      "outputs": [],
      "payable": false,
      "stateMutability": "nonpayable",
      "type": "function"
    },
    {
      "constant": false,
      "inputs": [
        {
          "name": "_value",
          "type": "uint256"
        }
      ],
      "name": "setMinBridgeValue",
      "outputs": [],
      "payable": false,
      "stateMutability": "nonpayable",
      "type": "function"
    },
    {
      "constant": false,
      "inputs": [
        {
          "name": "_value",
          "type": "uint256"
        }
      ],
      "name": "setMaxBridgeValue",
      "outputs": [],
      "payable": false,
      "stateMutability": "nonpayable",
      "type": "function"
    },
    {
      "constant": false,
      "inputs": [
        {
          "name": "_validator",
          "type": "address"
        }
      ],
      "name": "addValidator",
      "outputs": [],
      "payable": false,
      "stateMutability": "nonpayable",
      "type": "function"
    },
    {
      "constant": false,
      "inputs": [
        {
          "name": "_validator",
          "type": "address"
        }
      ],
      "name": "removeValidator",
      "outputs": [],
      "payable": false,
      "stateMutability": "nonpayable",
      "type": "function"
    },
    {
      "constant": false,
      "inputs": [
        {
          "name": "_active",
          "type": "bool"
        },
        {
          "name": "_networkId",
          "type": "uint64"
        },
        {
          "name": "_networkName",
          "type": "string"
        }
      ],
      "name": "setChain",
      "outputs": [],
      "payable": false,
      "stateMutability": "nonpayable",
      "type": "function"
    },
    {
      "constant": false,
      "inputs": [
        {
          "name": "_to",
          "type": "address"
        },
        {
          "name": "_networkId",
          "type": "uint64"
        },
        {
          "name": "_chainHash",
          "type": "bytes32"
        }
      ],
      "name": "startSwapTo",
      "outputs": [],
      "payable": true,
      "stateMutability": "payable",
      "type": "function"
    },
    {
      "constant": false,
      "inputs": [
        {
          "name": "_networkId",
          "type": "uint64"
        },
        {
          "name": "_chainHash",
          "type": "bytes32"
        }
      ],
      "name": "startSwap",
      "outputs": [],
      "payable": true,
      "stateMutability": "payable",
      "type": "function"
    },
    {
      "constant": false,
      "inputs": [
        {
          "name": "txHash",
          "type": "bytes32"
        },
        {
          "name": "account",
          "type": "address"
        },
        {
          "name": "value",
          "type": "uint256"
        },
        {
          "name": "fee",
          "type": "uint256"
        }
      ],
      "name": "validate",
      "outputs": [],
      "payable": false,
      "stateMutability": "nonpayable",
      "type": "function"
    },
    {
      "constant": false,
      "inputs": [],
      "name": "depositCoins",
      "outputs": [],
      "payable": true,
      "stateMutability": "payable",
      "type": "function"
    },
    {
      "constant": false,
      "inputs": [
        {
          "name": "amount",
          "type": "uint256"
        }
      ],
      "name": "withdrawCoins",
      "outputs": [],
      "payable": false,
      "stateMutability": "nonpayable",
      "type": "function"
    },
    {
      "constant": false,
      "inputs": [
        {
          "name": "nodeAddr",
          "type": "address"
        },
        {
          "name": "serviceId",
          "type": "uint16"
        },
        {
          "name": "paymentHash",
          "type": "bytes32"
        }
      ],
      "name": "serviceOn",
      "outputs": [
        {
          "name": "",
          "type": "bytes32"
        }
      ],
      "payable": true,
      "stateMutability": "payable",
      "type": "function"
    },
    {
      "constant": false,
      "inputs": [
        {
          "name": "paymentHash",
          "type": "bytes32"
        }
      ],
      "name": "serviceOff",
      "outputs": [],
      "payable": false,
      "stateMutability": "nonpayable",
      "type": "function"
    },
    {
      "constant": false,
      "inputs": [
        {
          "name": "paymentHash",
          "type": "bytes32"
        },
        {
          "name": "feedbackRate",
          "type": "uint8"
        },
        {
          "name": "feedbackText",
          "type": "string"
        }
      ],
      "name": "sendFeedback",
      "outputs": [],
      "payable": false,
      "stateMutability": "nonpayable",
      "type": "function"
    }
  ],
  "bytecode": "0x60806040526000805460a060020a61ffff0219169055681b1ae4d6e2ef500000600655670de0b6b3a764000060095569021e19e0c9bab2400000600a553480156200004957600080fd5b5060405160208062004354833981018060405260208110156200006b57600080fd5b50516000805433600160a060020a031990911617808255600160a060020a03168152600d60209081526040808320805460ff191660019081179091556008805467ffffffffffffffff191667ffffffffffffffff871617905581518083018352600581527f4368617267000000000000000000000000000000000000000000000000000000818501908152855474010000000000000000000000000000000000000000900461ffff16865291909352922090516200012a929062000dd1565b5060008054600161ffff74010000000000000000000000000000000000000000808404821683018216810260a060020a61ffff021990941693909317808555604080518082018252600781527f5061726b696e670000000000000000000000000000000000000000000000000060208083019182529690930490931686529290935292209151620001bd92919062000dd1565b5060008054600161ffff74010000000000000000000000000000000000000000808404821683018216810260a060020a61ffff021990941693909317808555604080518082018252600881527f496e7465726e6574000000000000000000000000000000000000000000000000602080830191825296909304909316865292909352922091516200025092919062000dd1565b506000805460a060020a61ffff02198116740100000000000000000000000000000000000000009182900461ffff90811660019081019091169092021782556040805180820182529182528051808201909152601481527f4e6174697665204368617267204e6574776f726b000000000000000000000000602080830191909152808301918252611691909352600b835281517f99f383cba67619320d500d2de13be1aa8b7832fd63a0e574ae5b57fcff1dc7f1805460ff191691151591909117815590518051929391926200034a927f99f383cba67619320d500d2de13be1aa8b7832fd63a0e574ae5b57fcff1dc7f292019062000dd1565b505060408051808201825260018082528251808401909352601083527f457468657265756d204d61696e6e657400000000000000000000000000000000602080850191909152808301938452600091909152600b815281517f72c6bfb7988af3a1efa6568f02a999bc52252641c659d85961ca3d372b57d5cf805460ff1916911515919091178155925180519294506200040b927f72c6bfb7988af3a1efa6568f02a999bc52252641c659d85961ca3d372b57d5d092919091019062000dd1565b5050604080518082018252600181528151808301909252601382527f42696e616e636520536d61727420436861696e000000000000000000000000006020808401919091528082019283526038600052600b815281517f63f8b8455c25dd574f6f70e6135fc3c46a28496b9350872b5ec064987ff1a931805460ff191691151591909117815592518051929450620004ca927f63f8b8455c25dd574f6f70e6135fc3c46a28496b9350872b5ec064987ff1a93292919091019062000dd1565b5050604080518082018252600181528151808301909252600a82527f4865636f20436861696e000000000000000000000000000000000000000000006020808401919091528082019283526080600052600b815281517f40874af12329809fc69e54773bc6d272569a349a41db3c2a28a988012dc99802805460ff19169115159190911781559251805192945062000589927f40874af12329809fc69e54773bc6d272569a349a41db3c2a28a988012dc9980392919091019062000dd1565b5050604080518082018252600181528151808301909252600f82527f506f6c79676f6e204e6574776f726b00000000000000000000000000000000006020808401919091528082019283526089600052600b815281517f8ff9f2ae21996276e0c7f9da92f1e740d7687767426cf79853e796a0f30636da805460ff19169115159190911781559251805192945062000648927f8ff9f2ae21996276e0c7f9da92f1e740d7687767426cf79853e796a0f30636db92919091019062000dd1565b5050604080518082018252600181528151808301909252600e82527f467573696f6e204e6574776f726b000000000000000000000000000000000000602080840191909152808201928352617f93600052600b815281517ff5c1bf294cbcf5fa21634af06b4504cedd269ba4ec48aaf23cfb2bcc3f2dcd19805460ff19169115159190911781559251805192945062000708927ff5c1bf294cbcf5fa21634af06b4504cedd269ba4ec48aaf23cfb2bcc3f2dcd1a92919091019062000dd1565b5050604080518082018252600181528151808301909252601282527f417262697472756d204f6e6520436861696e000000000000000000000000000060208084019190915280820192835261a4b1600052600b815281517fdb676d8423b7bf1c885d7afabf5f836e0a3ff70a400ba0e51bcd01e6967006b9805460ff191691151591909117815592518051929450620007c8927fdb676d8423b7bf1c885d7afabf5f836e0a3ff70a400ba0e51bcd01e6967006ba92919091019062000dd1565b5050604080518082018252600181528151808301909252601482527f4e617469766520436861726720546573746e65740000000000000000000000006020808401919091528082019283526112a9600052600b815281517f3f5ec05d7d72d84f315904302fdf3b7dd1c56ccae6acf97ae201639921c86945805460ff19169115159190911781559251805192945062000888927f3f5ec05d7d72d84f315904302fdf3b7dd1c56ccae6acf97ae201639921c8694692919091019062000dd1565b5050604080518082018252600181528151808301909252600f82527f526f707374656e20546573746e657400000000000000000000000000000000006020808401919091528082019283526003600052600b815281517f64c15cc42be7899b001f818cf4433057002112c418d1d3a67cd5cb453051d33e805460ff19169115159190911781559251805192945062000947927f64c15cc42be7899b001f818cf4433057002112c418d1d3a67cd5cb453051d33f92919091019062000dd1565b5050604080518082018252600181528151808301909252600f82527f52696e6b65627920546573746e657400000000000000000000000000000000006020808401919091528082019283526004600052600b815281517f12d0c11577e2f0950f57c455c117796550b79f444811db8ba2f69c57b646c784805460ff19169115159190911781559251805192945062000a06927f12d0c11577e2f0950f57c455c117796550b79f444811db8ba2f69c57b646c78592919091019062000dd1565b5050604080518082018252600181528151808301909252600e82527f476f65726c6920546573746e65740000000000000000000000000000000000006020808401919091528082019283526005600052600b815281517febae6141bae5521e99e0a8d610356b0f501fea54980b59c84841db43ba7204f4805460ff19169115159190911781559251805192945062000ac5927febae6141bae5521e99e0a8d610356b0f501fea54980b59c84841db43ba7204f592919091019062000dd1565b5050604080518082018252600181528151808301909252600b8083527f42534320546573746e6574000000000000000000000000000000000000000000602080850191909152808301938452606160005290815281517fc58e5755a4893b21f18c8719b470ec5bd0d9d9c6be30f0e58a57bf6b3cfa7a28805460ff19169115159190911781559251805192945062000b84927fc58e5755a4893b21f18c8719b470ec5bd0d9d9c6be30f0e58a57bf6b3cfa7a2992919091019062000dd1565b5050604080518082018252600181528151808301909252600c82527f4865636f20546573746e65740000000000000000000000000000000000000000602080840191909152808201928352610100600052600b815281517fc1c9a637c5056064c63b67e37eabd624823c66bdabf4923c2e573d0c4fa1b6bc805460ff19169115159190911781559251805192945062000c44927fc1c9a637c5056064c63b67e37eabd624823c66bdabf4923c2e573d0c4fa1b6bd92919091019062000dd1565b5050604080518082018252600181528151808301909252600f82527f506f6c79676f6e20546573746e6574000000000000000000000000000000000060208084019190915280820192835262013881600052600b815281517fe63645f0b6582904299befec174b5508e40726a06d8b948db5815f888b3de58f805460ff19169115159190911781559251805192945062000d05927fe63645f0b6582904299befec174b5508e40726a06d8b948db5815f888b3de59092919091019062000dd1565b5050604080518082018252600181528151808301909252601082527f417262697472756d20546573746e65740000000000000000000000000000000060208084019190915280820192835262066eeb600052600b815281517f2f14dd9ad83a885bb27394eeb6ff05f18121230e7765e278d020870f767046c0805460ff19169115159190911781559251805192945062000dc6927f2f14dd9ad83a885bb27394eeb6ff05f18121230e7765e278d020870f767046c192919091019062000dd1565b509050505062000e76565b828054600181600116156101000203166002900490600052602060002090601f016020900481019282601f1062000e1457805160ff191683800117855562000e44565b8280016001018555821562000e44579182015b8281111562000e4457825182559160200191906001019062000e27565b5062000e5292915062000e56565b5090565b62000e7391905b8082111562000e52576000815560010162000e5d565b90565b6134ce8062000e866000396000f3fe6080604052600436106101b55763ffffffff7c0100000000000000000000000000000000000000000000000000000000600035041662dd69f081146101bf57806307d2f5db146102625780630bf087871461028c57806313af4035146102b8578063223a3075146102eb5780633a5c2ccf146103125780633e3ac461146103d457806340a141ff146104cc57806347e4b7be146104ff5780634827f1d2146105295780634d238c8e146105645780634dc238a61461059757806359b33c0b146105e15780635a6c858c146106175780635e14a2f71461067e57806364dc69111461073857806366b39fc314610a27578063728af20d14610a3c57806388fcd19414610a695780638da5cb5b14610b1c5780639025e64c14610b4d578063939d1e9614610b7f5780639631fb3c14610ba9578063a5a657b414610bd3578063ada8bcdc14610c9e578063c39b07ee14610d55578063c57895f3146101b5578063d3d1fb4814610d91578063d9c6913614611004578063e3d670d714611019578063eb84e7f21461104c578063eeba014c1461108a578063f645e00a146110c3578063f9f95a0f14611108578063facd743b14611132575b6101bd611165565b005b3480156101cb57600080fd5b506101ed600480360360208110156101e257600080fd5b503561ffff166111da565b6040805160208082528351818301528351919283929083019185019080838360005b8381101561022757818101518382015260200161020f565b50505050905090810190601f1680156102545780820380516001836020036101000a031916815260200191505b509250505060405180910390f35b34801561026e57600080fd5b506101bd6004803603602081101561028557600080fd5b5035611274565b34801561029857600080fd5b506102a1611455565b6040805161ffff9092168252519081900360200190f35b3480156102c457600080fd5b506101bd600480360360208110156102db57600080fd5b5035600160a060020a0316611477565b3480156102f757600080fd5b506103006114f6565b60408051918252519081900360200190f35b34801561031e57600080fd5b506101bd6004803603606081101561033557600080fd5b81359160ff6020820135169181019060608101604082013564010000000081111561035f57600080fd5b82018360208201111561037157600080fd5b8035906020019184600183028401116401000000008311171561039357600080fd5b91908080601f0160208091040260200160405190810160405280939291908181526020018383808284376000920191909152509295506114fc945050505050565b3480156103e057600080fd5b506103fe600480360360208110156103f757600080fd5b5035611630565b604080518a815260208082018b905289151592820192909252600160a060020a0380891660608301528716608082015260a0810186905261ffff851660c082015260ff841660e0820152610120610100820181815284519183019190915283519192909161014084019185019080838360005b83811015610489578181015183820152602001610471565b50505050905090810190601f1680156104b65780820380516001836020036101000a031916815260200191505b509a505050505050505050505060405180910390f35b3480156104d857600080fd5b506101bd600480360360208110156104ef57600080fd5b5035600160a060020a031661171d565b34801561050b57600080fd5b506101bd6004803603602081101561052257600080fd5b503561178e565b34801561053557600080fd5b506101bd6004803603604081101561054c57600080fd5b50600160a060020a03813516906020013515156117e3565b34801561057057600080fd5b506101bd6004803603602081101561058757600080fd5b5035600160a060020a03166118cd565b3480156105a357600080fd5b506101bd600480360360a08110156105ba57600080fd5b5061ffff813516906020810135151590604081013515159060608101359060800135611941565b610300600480360360608110156105f757600080fd5b50600160a060020a038135169061ffff6020820135169060400135611a2a565b34801561062357600080fd5b506106546004803603604081101561063a57600080fd5b508035600160a060020a0316906020013561ffff16612001565b60408051941515855260208501939093528383019190915215156060830152519081900360800190f35b34801561068a57600080fd5b506101bd600480360360408110156106a157600080fd5b813591908101906040810160208201356401000000008111156106c357600080fd5b8201836020820111156106d557600080fd5b803590602001918460018302840111640100000000831117156106f757600080fd5b91908080601f016020809104026020016040519081016040528093929190818152602001838380828437600092019190915250929550612038945050505050565b34801561074457600080fd5b506101bd600480360361014081101561075c57600080fd5b8135600f90810b92602081013590910b9181019060608101604082013564010000000081111561078b57600080fd5b82018360208201111561079d57600080fd5b803590602001918460018302840111640100000000831117156107bf57600080fd5b91908080601f016020809104026020016040519081016040528093929190818152602001838380828437600092019190915250929594936020810193503591505064010000000081111561081257600080fd5b82018360208201111561082457600080fd5b8035906020019184600183028401116401000000008311171561084657600080fd5b91908080601f016020809104026020016040519081016040528093929190818152602001838380828437600092019190915250929594936020810193503591505064010000000081111561089957600080fd5b8201836020820111156108ab57600080fd5b803590602001918460018302840111640100000000831117156108cd57600080fd5b91908080601f016020809104026020016040519081016040528093929190818152602001838380828437600092019190915250929594936020810193503591505064010000000081111561092057600080fd5b82018360208201111561093257600080fd5b8035906020019184600183028401116401000000008311171561095457600080fd5b91908080601f01602080910402602001604051908101604052809392919081815260200183838082843760009201919091525092959493602081019350359150506401000000008111156109a757600080fd5b8201836020820111156109b957600080fd5b803590602001918460018302840111640100000000831117156109db57600080fd5b91908080601f01602080910402602001604051908101604052809392919081815260200183838082843760009201919091525092955050823593505050602081013590604001356120ce565b348015610a3357600080fd5b506103006125fe565b6101bd60048036036040811015610a5257600080fd5b5067ffffffffffffffff8135169060200135612604565b348015610a7557600080fd5b506101bd60048036036020811015610a8c57600080fd5b810190602081018135640100000000811115610aa757600080fd5b820183602082011115610ab957600080fd5b80359060200191846001830284011164010000000083111715610adb57600080fd5b91908080601f016020809104026020016040519081016040528093929190818152602001838380828437600092019190915250929550612613945050505050565b348015610b2857600080fd5b50610b316126eb565b60408051600160a060020a039092168252519081900360200190f35b348015610b5957600080fd5b50610b626126fa565b6040805167ffffffffffffffff9092168252519081900360200190f35b348015610b8b57600080fd5b506101bd60048036036020811015610ba257600080fd5b503561270a565b348015610bb557600080fd5b506101bd60048036036020811015610bcc57600080fd5b50356127b7565b348015610bdf57600080fd5b506101bd60048036036060811015610bf657600080fd5b813515159167ffffffffffffffff60208201351691810190606081016040820135640100000000811115610c2957600080fd5b820183602082011115610c3b57600080fd5b80359060200191846001830284011164010000000083111715610c5d57600080fd5b91908080601f016020809104026020016040519081016040528093929190818152602001838380828437600092019190915250929550612864945050505050565b348015610caa57600080fd5b50610cd260048036036020811015610cc157600080fd5b503567ffffffffffffffff166128f6565b604051808315151515815260200180602001828103825283818151815260200191508051906020019080838360005b83811015610d19578181015183820152602001610d01565b50505050905090810190601f168015610d465780820380516001836020036101000a031916815260200191505b50935050505060405180910390f35b6101bd60048036036060811015610d6b57600080fd5b50600160a060020a038135169067ffffffffffffffff60208201351690604001356129a4565b348015610d9d57600080fd5b50610dc460048036036020811015610db457600080fd5b5035600160a060020a0316612b68565b604051808a1515151581526020018915151515815260200188600f0b600f0b815260200187600f0b600f0b8152602001806020018060200180602001806020018060200186810386528b818151815260200191508051906020019080838360005b83811015610e3d578181015183820152602001610e25565b50505050905090810190601f168015610e6a5780820380516001836020036101000a031916815260200191505b5086810385528a5181528a516020918201918c019080838360005b83811015610e9d578181015183820152602001610e85565b50505050905090810190601f168015610eca5780820380516001836020036101000a031916815260200191505b5086810384528951815289516020918201918b019080838360005b83811015610efd578181015183820152602001610ee5565b50505050905090810190601f168015610f2a5780820380516001836020036101000a031916815260200191505b5086810383528851815288516020918201918a019080838360005b83811015610f5d578181015183820152602001610f45565b50505050905090810190601f168015610f8a5780820380516001836020036101000a031916815260200191505b50868103825287518152875160209182019189019080838360005b83811015610fbd578181015183820152602001610fa5565b50505050905090810190601f168015610fea5780820380516001836020036101000a031916815260200191505b509e50505050505050505050505050505060405180910390f35b34801561101057600080fd5b50610300612e3b565b34801561102557600080fd5b506103006004803603602081101561103c57600080fd5b5035600160a060020a0316612e41565b34801561105857600080fd5b506110766004803603602081101561106f57600080fd5b5035612e53565b604080519115158252519081900360200190f35b34801561109657600080fd5b506101ed600480360360408110156110ad57600080fd5b50600160a060020a038135169060200135612e68565b3480156110cf57600080fd5b506101bd600480360360808110156110e657600080fd5b50803590600160a060020a036020820135169060408101359060600135612ed8565b34801561111457600080fd5b506101bd6004803603602081101561112b57600080fd5b5035613079565b34801561113e57600080fd5b506110766004803603602081101561115557600080fd5b5035600160a060020a0316613145565b33600090815260076020526040902054611185903463ffffffff61315a16565b33600081815260076020908152604091829020849055815192835234908301528181019290925290517f0e19e58d9dd9657044b18cacb159b832c52df06379f08a911c8b0f519530f0d79181900360600190a1565b60016020818152600092835260409283902080548451600294821615610100026000190190911693909304601f810183900483028401830190945283835291929083018282801561126c5780601f106112415761010080835404028352916020019161126c565b820191906000526020600020905b81548152906001019060200180831161124f57829003601f168201915b505050505081565b6000818152600560205260408120541180156112a1575060008181526005602052604090206002015460ff165b80156112bd575060008181526005602052604090206001015442105b80156112e25750600081815260056020526040902060030154600160a060020a031633145b15156112ed57600080fd5b60008181526005602052604081206001015461130f904263ffffffff6131c016565b6000838152600560205260408120600401549192509061133690839063ffffffff61320216565b6000848152600560209081526040808320426001820155600201546101009004600160a060020a03168352600790915290205490915061137690826131c0565b6000848152600560209081526040808320600201546101009004600160a060020a03168352600790915280822092909255905133916108fc841502918491818181858888f193505050501580156113d1573d6000803e3d6000fd5b506000838152600560208181526040928390206002810154920154835187815261ffff909116918101919091528083018490526060810185905242608082015291513392610100909204600160a060020a0316917f5926c04550435944a3cff7b8d7e66ec761c5b42702f9cd25448b08b329d6146a919081900360a00190a3505050565b60005474010000000000000000000000000000000000000000900461ffff1681565b600054600160a060020a031633146114c7576040805160e560020a62461bcd02815260206004820152600a6024820152600080516020613483833981519152604482015290519081900360640190fd5b6000805473ffffffffffffffffffffffffffffffffffffffff1916600160a060020a0392909216919091179055565b60065481565b600083815260056020526040902060030154600160a060020a03163314801561153e57506000838152600560208190526040909120015462010000900460ff16155b151561154957600080fd5b600a8260ff161161156d5760018260ff16106115655781611568565b60015b611570565b600a5b6000848152600560208181526040909220908101805460ff94909416620100000262ff0000199094169390931790925582516115b292600601918401906133e7565b506000838152600560208181526040928390206002810154920154835187815261ffff82169281019290925260ff62010000909104168184015291513392610100909204600160a060020a0316917f7ec723eb9c23b9ef5bfc5d0c883b72ef5436f0e9c8355f5f9ef486f842f84400919081900360600190a3505050565b600560208181526000928352604092839020805460018083015460028085015460038601546004870154988701546006880180548c516101009882161589026000190190911695909504601f81018b90048b0286018b01909c528b8552969a949960ff8085169a97909404600160a060020a0390811699931697909661ffff831696620100009093049094169492939091908301828280156117135780601f106116e857610100808354040283529160200191611713565b820191906000526020600020905b8154815290600101906020018083116116f657829003601f168201915b5050505050905089565b600054600160a060020a0316331461176d576040805160e560020a62461bcd02815260206004820152600a6024820152600080516020613483833981519152604482015290519081900360640190fd5b600160a060020a03166000908152600d60205260409020805460ff19169055565b600054600160a060020a031633146117de576040805160e560020a62461bcd02815260206004820152600a6024820152600080516020613483833981519152604482015290519081900360640190fd5b600655565b600054600160a060020a03163314611833576040805160e560020a62461bcd02815260206004820152600a6024820152600080516020613483833981519152604482015290519081900360640190fd5b3360009081526003602052604090205460ff16151561189c576040805160e560020a62461bcd02815260206004820152600e60248201527f6e6f742072656769737465726564000000000000000000000000000000000000604482015290519081900360640190fd5b600160a060020a03909116600090815260036020526040902080549115156101000261ff0019909216919091179055565b600054600160a060020a0316331461191d576040805160e560020a62461bcd02815260206004820152600a6024820152600080516020613483833981519152604482015290519081900360640190fd5b600160a060020a03166000908152600d60205260409020805460ff19166001179055565b3360009081526003602052604090205460ff1615156119aa576040805160e560020a62461bcd02815260206004820152600e60248201527f6e6f742072656769737465726564000000000000000000000000000000000000604482015290519081900360640190fd5b60005461ffff740100000000000000000000000000000000000000009091048116908616106119d857600080fd5b33600090815260046020908152604080832061ffff98909816835296905294909420805493151560ff199485161781556003810180549315159390941692909217909255600181019190915560020155565b600160a060020a038316600090815260036020526040812054610100900460ff161515611aa1576040805160e560020a62461bcd02815260206004820152600d60248201527f6e6f74206174686f72697a656400000000000000000000000000000000000000604482015290519081900360640190fd5b60003411611af9576040805160e560020a62461bcd02815260206004820152600b60248201527f77726f6e672076616c7565000000000000000000000000000000000000000000604482015290519081900360640190fd5b600654600160a060020a038516600081815260076020526040902054611b25913163ffffffff61315a16565b1015611b7b576040805160e560020a62461bcd02815260206004820152600b60248201527f6d696e2062616c616e6365000000000000000000000000000000000000000000604482015290519081900360640190fd5b600160a060020a038416600090815260046020908152604080832061ffff8716845290915290205460ff161515611bfc576040805160e560020a62461bcd02815260206004820152601260248201527f73657276696365206e6f7420616c6f7765640000000000000000000000000000604482015290519081900360640190fd5b811515611c6b57604080516c0100000000000000000000000033026020808301919091524260348301527e0100000000000000000000000000000000000000000000000000000000000061ffff8716026054830152825160368184030181526056909201909252805191012091505b60008281526005602052604090205415611ccf576040805160e560020a62461bcd02815260206004820152600e60248201527f7061796d656e7420736572766564000000000000000000000000000000000000604482015290519081900360640190fd5b600160a060020a038416600090815260046020908152604080832061ffff87168452909152812060010154611d0b90349063ffffffff61329e16565b600160a060020a038616600090815260046020908152604080832061ffff8916845290915290206002015490915081111580611d6f5750600160a060020a038516600090815260046020908152604080832061ffff88168452909152902060020154155b1515611d7a57600080fd5b600160a060020a038516600090815260076020526040902054611da3903463ffffffff61315a16565b6007600087600160a060020a0316600160a060020a0316815260200190815260200160002081905550846005600085815260200190815260200160002060020160016101000a815481600160a060020a030219169083600160a060020a03160217905550336005600085815260200190815260200160002060030160006101000a815481600160a060020a030219169083600160a060020a031602179055506004600086600160a060020a0316600160a060020a0316815260200190815260200160002060008561ffff1661ffff168152602001908152602001600020600101546005600085815260200190815260200160002060040181905550836005600085815260200190815260200160002060050160006101000a81548161ffff021916908361ffff16021790555042600560008581526020019081526020016000206000018190555080420160056000858152602001908152602001600020600101819055506004600086600160a060020a0316600160a060020a0316815260200190815260200160002060008561ffff1661ffff16815260200190815260200160002060030160009054906101000a900460ff166005600085815260200190815260200160002060020160006101000a81548160ff02191690831515021790555033600160a060020a031685600160a060020a03167f242732fca01031d9527a13da4ce5300b6a91221762fb09130d882bb2fb37769585873486874201604051808681526020018561ffff1661ffff1681526020018481526020018381526020018281526020019550505050505060405180910390a350909392505050565b6004602090815260009283526040808420909152908252902080546001820154600283015460039093015460ff9283169391921684565b3360009081526003602052604090205460ff1615156120a1576040805160e560020a62461bcd02815260206004820152600e60248201527f6e6f742072656769737465726564000000000000000000000000000000000000604482015290519081900360640190fd5b336000908152600260209081526040808320858452825290912082516120c9928401906133e7565b505050565b3360009081526003602052604090205460ff161580612101575033600090815260036020526040902054610100900460ff165b1515612157576040805160e560020a62461bcd02815260206004820152601260248201527f616c726561647920726567697374657265640000000000000000000000000000604482015290519081900360640190fd5b6006543331101561216757600080fd5b3360009081526003602052604090205460ff1615156121a657336000908152600360205260409020805461ff001960ff19909116600117166101001790555b336000908152600360209081526040909120805471ffffffffffffffffffffffffffffffff00001916620100006fffffffffffffffffffffffffffffffff600f8f810b8216929092029290921783556001830180546fffffffffffffffffffffffffffffffff1916918e900b909216179055895161222c926002909201918b01906133e7565b503360009081526003602090815260409091208851612253926004909201918a01906133e7565b50336000908152600360208181526040909220885161227a939190920191908901906133e7565b5033600090815260036020908152604090912086516122a1926005909201918801906133e7565b5033600090815260036020908152604090912085516122c8926006909201918701906133e7565b5060008311156123155733600090815260046020908152604080832083805290915281208054600160ff199182168117835560038301805490921681179091556002820192909255018390555b600082111561235f57336000908152600460209081526040808320600180855292528220805460ff1990811683178255600382018054909116831790556002810192909255018290555b60008111156123ab573360009081526004602090815260408083206002808552925282208054600160ff1991821681178355600383018054909216811790915591810192909255018190555b88600f0b8a600f0b33600160a060020a03167f4358612de1db3fac41bf308f1e8453877e9201e32ddac447293c953f09f8f1df8b8b8b8b8b60405180806020018060200180602001806020018060200186810386528b818151815260200191508051906020019080838360005b83811015612430578181015183820152602001612418565b50505050905090810190601f16801561245d5780820380516001836020036101000a031916815260200191505b5086810385528a5181528a516020918201918c019080838360005b83811015612490578181015183820152602001612478565b50505050905090810190601f1680156124bd5780820380516001836020036101000a031916815260200191505b5086810384528951815289516020918201918b019080838360005b838110156124f05781810151838201526020016124d8565b50505050905090810190601f16801561251d5780820380516001836020036101000a031916815260200191505b5086810383528851815288516020918201918a019080838360005b83811015612550578181015183820152602001612538565b50505050905090810190601f16801561257d5780820380516001836020036101000a031916815260200191505b50868103825287518152875160209182019189019080838360005b838110156125b0578181015183820152602001612598565b50505050905090810190601f1680156125dd5780820380516001836020036101000a031916815260200191505b509a505050505050505050505060405180910390a450505050505050505050565b60095481565b61260f3383836129a4565b5050565b600054600160a060020a03163314612663576040805160e560020a62461bcd02815260206004820152600a6024820152600080516020613483833981519152604482015290519081900360640190fd5b6000805474010000000000000000000000000000000000000000900461ffff168152600160209081526040909120825161269f928401906133e7565b505060008054600161ffff74010000000000000000000000000000000000000000808404821692909201160275ffff000000000000000000000000000000000000000019909116179055565b600054600160a060020a031681565b60085467ffffffffffffffff1681565b600054600160a060020a0316331461275a576040805160e560020a62461bcd02815260206004820152600a6024820152600080516020613483833981519152604482015290519081900360640190fd5b600081116127b2576040805160e560020a62461bcd02815260206004820152600b60248201527f77726f6e672076616c7565000000000000000000000000000000000000000000604482015290519081900360640190fd5b600a55565b600054600160a060020a03163314612807576040805160e560020a62461bcd02815260206004820152600a6024820152600080516020613483833981519152604482015290519081900360640190fd5b6000811161285f576040805160e560020a62461bcd02815260206004820152600b60248201527f77726f6e672076616c7565000000000000000000000000000000000000000000604482015290519081900360640190fd5b600955565b600054600160a060020a031633146128b4576040805160e560020a62461bcd02815260206004820152600a6024820152600080516020613483833981519152604482015290519081900360640190fd5b67ffffffffffffffff82166000908152600b60209081526040909120805460ff191685151517815582516128f0926001909201918401906133e7565b50505050565b600b602090815260009182526040918290208054600180830180548651600261010094831615949094026000190190911692909204601f810186900486028301860190965285825260ff90921694929390929083018282801561299a5780601f1061296f5761010080835404028352916020019161299a565b820191906000526020600020905b81548152906001019060200180831161297d57829003601f168201915b5050505050905082565b60085467ffffffffffffffff83811691161415612a30576040805160e560020a62461bcd028152602060048201526024808201527f7377617020696e207468652073616d65206e6574776f726b206e6f7420616c6c60448201527f6f77656400000000000000000000000000000000000000000000000000000000606482015290519081900360840190fd5b67ffffffffffffffff82166000908152600b602052604090205460ff161515612aa3576040805160e560020a62461bcd02815260206004820152601060248201527f73776170206e6f7420616c6c6f77656400000000000000000000000000000000604482015290519081900360640190fd5b6009543410158015612ab75750600a543411155b1515612b0d576040805160e560020a62461bcd02815260206004820152600b60248201527f77726f6e672076616c7565000000000000000000000000000000000000000000604482015290519081900360640190fd5b6040805134815267ffffffffffffffff841660208201528082018390529051600160a060020a0385169133917ffce127096b7d03c093e140f94dd36ada34f04493a7985f5ec4ee82953671fbbf9181900360600190a3505050565b60036020908152600091825260409182902080546001808301546002808501805488516101009582161586026000190190911692909204601f810188900488028301880190985287825260ff80861698948604169662010000909504600f90810b9693900b9492939192909190830182828015612c265780601f10612bfb57610100808354040283529160200191612c26565b820191906000526020600020905b815481529060010190602001808311612c0957829003601f168201915b5050505060038301805460408051602060026001851615610100026000190190941693909304601f8101849004840282018401909252818152949594935090830182828015612cb65780601f10612c8b57610100808354040283529160200191612cb6565b820191906000526020600020905b815481529060010190602001808311612c9957829003601f168201915b5050505060048301805460408051602060026001851615610100026000190190941693909304601f8101849004840282018401909252818152949594935090830182828015612d465780601f10612d1b57610100808354040283529160200191612d46565b820191906000526020600020905b815481529060010190602001808311612d2957829003601f168201915b5050505060058301805460408051602060026001851615610100026000190190941693909304601f8101849004840282018401909252818152949594935090830182828015612dd65780601f10612dab57610100808354040283529160200191612dd6565b820191906000526020600020905b815481529060010190602001808311612db957829003601f168201915b5050505060068301805460408051602060026001851615610100026000190190941693909304601f81018490048402820184019092528181529495949350908301828280156117135780601f106116e857610100808354040283529160200191611713565b600a5481565b60076020526000908152604090205481565b600c6020526000908152604090205460ff1681565b6002602081815260009384526040808520825292845292829020805483516001821615610100026000190190911692909204601f8101859004850283018501909352828252909290919083018282801561126c5780601f106112415761010080835404028352916020019161126c565b336000908152600d602052604090205460ff161515612f41576040805160e560020a62461bcd02815260206004820152600f60248201527f6f6e6c792076616c696461746f72730000000000000000000000000000000000604482015290519081900360640190fd5b6000848152600c602052604090205460ff1615612fa8576040805160e560020a62461bcd02815260206004820152601160248201527f616c72656164792076616c696461746564000000000000000000000000000000604482015290519081900360640190fd5b604051600160a060020a0384169083156108fc029084906000818181858888f19350505050158015612fde573d6000803e3d6000fd5b5060008111156130195733600090815260076020526040902054613008908263ffffffff61315a16565b336000908152600760205260409020555b6000848152600c6020908152604091829020805460ff1916600117905581518481529151600160a060020a0386169287927f5d055511d7e4022440c8e910e60ab31f4deeeb5a6de996beef688e13651b87ad92918290030190a350505050565b3360009081526007602052604090205481111561309557600080fd5b336000908152600760205260409020546130b5908263ffffffff6131c016565b33600081815260076020526040808220939093559151909183156108fc02918491818181858888f193505050501580156130f3573d6000803e3d6000fd5b503360008181526007602090815260409182902054825193845290830184905282820152517fa2ab4f32baffd257640c6e28efe7de7bf5b4c6040f39865a5a56691ca08e34ed9181900360600190a150565b600d6020526000908152604090205460ff1681565b6000828201838110156131b7576040805160e560020a62461bcd02815260206004820152601b60248201527f536166654d6174683a206164646974696f6e206f766572666c6f770000000000604482015290519081900360640190fd5b90505b92915050565b60006131b783836040805190810160405280601e81526020017f536166654d6174683a207375627472616374696f6e206f766572666c6f7700008152506132e0565b6000821515613213575060006131ba565b82820282848281151561322257fe5b04146131b7576040805160e560020a62461bcd02815260206004820152602160248201527f536166654d6174683a206d756c7469706c69636174696f6e206f766572666c6f60448201527f7700000000000000000000000000000000000000000000000000000000000000606482015290519081900360840190fd5b60006131b783836040805190810160405280601a81526020017f536166654d6174683a206469766973696f6e206279207a65726f00000000000081525061337a565b600081848411156133725760405160e560020a62461bcd0281526004018080602001828103825283818151815260200191508051906020019080838360005b8381101561333757818101518382015260200161331f565b50505050905090810190601f1680156133645780820380516001836020036101000a031916815260200191505b509250505060405180910390fd5b505050900390565b6000818184116133cf5760405160e560020a62461bcd0281526004018080602001828103825283818151815260200191508051906020019080838360008381101561333757818101518382015260200161331f565b50600083858115156133dd57fe5b0495945050505050565b828054600181600116156101000203166002900490600052602060002090601f016020900481019282601f1061342857805160ff1916838001178555613455565b82800160010185558215613455579182015b8281111561345557825182559160200191906001019061343a565b50613461929150613465565b5090565b61347f91905b80821115613461576000815560010161346b565b9056fe6f6e6c79206f776e657200000000000000000000000000000000000000000000a165627a7a723058205735d96b49b9a604a05a9e5724cbed2dafa9a7b280c847fa88a9d4983385ea730029",
  "source": "// SPDX-License-Identifier: MIT\r\n\r\n// File: @openzeppelin/contracts/math/SafeMath.sol\r\n\r\npragma solidity ^0.5.0;\r\n\r\n/**\r\n * @dev Wrappers over Solidity's arithmetic operations with added overflow\r\n * checks.\r\n *\r\n * Arithmetic operations in Solidity wrap on overflow. This can easily result\r\n * in bugs, because programmers usually assume that an overflow raises an\r\n * error, which is the standard behavior in high level programming languages.\r\n * `SafeMath` restores this intuition by reverting the transaction when an\r\n * operation overflows.\r\n *\r\n * Using this library instead of the unchecked operations eliminates an entire\r\n * class of bugs, so it's recommended to use it always.\r\n */\r\nlibrary SafeMath {\r\n    /**\r\n     * @dev Returns the addition of two unsigned integers, reverting on\r\n     * overflow.\r\n     *\r\n     * Counterpart to Solidity's `+` operator.\r\n     *\r\n     * Requirements:\r\n     * - Addition cannot overflow.\r\n     */\r\n    function add(uint256 a, uint256 b) internal pure returns (uint256) {\r\n        uint256 c = a + b;\r\n        require(c >= a, \"SafeMath: addition overflow\");\r\n\r\n        return c;\r\n    }\r\n\r\n    /**\r\n     * @dev Returns the subtraction of two unsigned integers, reverting on\r\n     * overflow (when the result is negative).\r\n     *\r\n     * Counterpart to Solidity's `-` operator.\r\n     *\r\n     * Requirements:\r\n     * - Subtraction cannot overflow.\r\n     */\r\n    function sub(uint256 a, uint256 b) internal pure returns (uint256) {\r\n        return sub(a, b, \"SafeMath: subtraction overflow\");\r\n    }\r\n\r\n    /**\r\n     * @dev Returns the subtraction of two unsigned integers, reverting with custom message on\r\n     * overflow (when the result is negative).\r\n     *\r\n     * Counterpart to Solidity's `-` operator.\r\n     *\r\n     * Requirements:\r\n     * - Subtraction cannot overflow.\r\n     *\r\n     * _Available since v2.4.0._\r\n     */\r\n    function sub(uint256 a, uint256 b, string memory errorMessage) internal pure returns (uint256) {\r\n        require(b <= a, errorMessage);\r\n        uint256 c = a - b;\r\n\r\n        return c;\r\n    }\r\n\r\n    /**\r\n     * @dev Returns the multiplication of two unsigned integers, reverting on\r\n     * overflow.\r\n     *\r\n     * Counterpart to Solidity's `*` operator.\r\n     *\r\n     * Requirements:\r\n     * - Multiplication cannot overflow.\r\n     */\r\n    function mul(uint256 a, uint256 b) internal pure returns (uint256) {\r\n        // Gas optimization: this is cheaper than requiring 'a' not being zero, but the\r\n        // benefit is lost if 'b' is also tested.\r\n        // See: https://github.com/OpenZeppelin/openzeppelin-contracts/pull/522\r\n        if (a == 0) {\r\n            return 0;\r\n        }\r\n\r\n        uint256 c = a * b;\r\n        require(c / a == b, \"SafeMath: multiplication overflow\");\r\n\r\n        return c;\r\n    }\r\n\r\n    /**\r\n     * @dev Returns the integer division of two unsigned integers. Reverts on\r\n     * division by zero. The result is rounded towards zero.\r\n     *\r\n     * Counterpart to Solidity's `/` operator. Note: this function uses a\r\n     * `revert` opcode (which leaves remaining gas untouched) while Solidity\r\n     * uses an invalid opcode to revert (consuming all remaining gas).\r\n     *\r\n     * Requirements:\r\n     * - The divisor cannot be zero.\r\n     */\r\n    function div(uint256 a, uint256 b) internal pure returns (uint256) {\r\n        return div(a, b, \"SafeMath: division by zero\");\r\n    }\r\n\r\n    /**\r\n     * @dev Returns the integer division of two unsigned integers. Reverts with custom message on\r\n     * division by zero. The result is rounded towards zero.\r\n     *\r\n     * Counterpart to Solidity's `/` operator. Note: this function uses a\r\n     * `revert` opcode (which leaves remaining gas untouched) while Solidity\r\n     * uses an invalid opcode to revert (consuming all remaining gas).\r\n     *\r\n     * Requirements:\r\n     * - The divisor cannot be zero.\r\n     *\r\n     * _Available since v2.4.0._\r\n     */\r\n    function div(uint256 a, uint256 b, string memory errorMessage) internal pure returns (uint256) {\r\n        // Solidity only automatically asserts when dividing by 0\r\n        require(b > 0, errorMessage);\r\n        uint256 c = a / b;\r\n        // assert(a == b * c + a % b); // There is no case in which this doesn't hold\r\n\r\n        return c;\r\n    }\r\n\r\n    /**\r\n     * @dev Returns the remainder of dividing two unsigned integers. (unsigned integer modulo),\r\n     * Reverts when dividing by zero.\r\n     *\r\n     * Counterpart to Solidity's `%` operator. This function uses a `revert`\r\n     * opcode (which leaves remaining gas untouched) while Solidity uses an\r\n     * invalid opcode to revert (consuming all remaining gas).\r\n     *\r\n     * Requirements:\r\n     * - The divisor cannot be zero.\r\n     */\r\n    function mod(uint256 a, uint256 b) internal pure returns (uint256) {\r\n        return mod(a, b, \"SafeMath: modulo by zero\");\r\n    }\r\n\r\n    /**\r\n     * @dev Returns the remainder of dividing two unsigned integers. (unsigned integer modulo),\r\n     * Reverts with custom message when dividing by zero.\r\n     *\r\n     * Counterpart to Solidity's `%` operator. This function uses a `revert`\r\n     * opcode (which leaves remaining gas untouched) while Solidity uses an\r\n     * invalid opcode to revert (consuming all remaining gas).\r\n     *\r\n     * Requirements:\r\n     * - The divisor cannot be zero.\r\n     *\r\n     * _Available since v2.4.0._\r\n     */\r\n    function mod(uint256 a, uint256 b, string memory errorMessage) internal pure returns (uint256) {\r\n        require(b != 0, errorMessage);\r\n        return a % b;\r\n    }\r\n}\r\n\r\npragma solidity ^0.5.0;\r\n\r\n/*\r\n * The Charg Service Contract\r\n *\r\n * Handles Bridge, Services and Feedbacks on the Charg Mainnet\r\n *\r\n */\r\n\r\ncontract ChargCoinService {\r\n  \r\n\tusing SafeMath for uint;\r\n    address payable public owner;\r\n\r\n    /**\r\n\t * the node main data\r\n\t */\r\n\tstruct NodeData {\r\n\r\n\t\tbool registered;\r\n\t\tbool authorized;\r\n\r\n        /* lat, lon values, multiplied by 10^7 */\r\n\t\tint128 latitude;\r\n\t\tint128 longitude;\r\n\r\n\t\t/* main parameters */\r\n\t\tstring name;\r\n\t\tstring phone;\r\n\t\tstring location;\r\n\t\tstring connector;\r\n\t\tstring power;\r\n\t}\r\n\r\n\r\n    /**\r\n\t * service parameters for the particular node \r\n\t */\r\n\tstruct ServiceData {\r\n\t\tbool allowed; // service allowed on the node\r\n\t\tuint rate;    // service rate in coins gwei per second\r\n\t\tuint maxTime; // max service time in seconds (0==unlimited)\r\n\t\tbool stopable; // return allowed\r\n\t}\r\n\r\n\r\n    /* service action data */\r\n\tstruct ServiceAction {\r\n\t\tuint started;\r\n\t\tuint finished;\r\n\t\tbool stopable;\r\n\t\taddress node;\r\n\t\taddress payer;\r\n\t\tuint serviceRate;\r\n\t\tuint16 serviceId;\r\n\t\tuint8 feedbackRate;\r\n\t\tstring feedbackText;\r\n\t}\r\n\r\n\tuint16 public servicesCount = 0; \r\n\tmapping (uint16 => string) public services;  // array of possible services\r\n\r\n    mapping (address => mapping (bytes32 => string)) public nodeParameters;  //node => parametrHash => parameterValue\r\n\r\n    mapping (address => NodeData) public registeredNodes;\r\n\r\n    mapping (address => mapping (uint16 => ServiceData)) public nodeService;  //node => serviceId => ServiceData\r\n\r\n\tmapping (bytes32 => ServiceAction) public serviceActions; // paymentHash => ServiceAction\r\n\t\r\n\t/**\r\n\t * minimal CHG balance for start service on the node\r\n\t */\r\n    uint public minCoinsBalance = 500 * 10 ** 18; // 500 CHG default\r\n\r\n\t/*  balance of nodes  */\r\n\tmapping (address => uint) public balance;\r\n\r\n\t/*  sevice events  */\r\n \tevent NodeRegistered ( address indexed addr, int128 indexed latitude, int128 indexed longitude, string name, string location, string phone, string connector, string power );\r\n \t//event NodeModified ( address indexed addr, int128 indexed latitude, int128 indexed longitude, string name, string location, string phone, string connector, string power );\r\n\r\n\tevent DepositCoins  ( address sender, uint CoinValue, uint CoinBalance );\r\n\tevent WithdrawCoins ( address sender, uint CoinValue, uint CoinBalance );\r\n\r\n\tevent ServiceOn  ( address indexed nodeAddr, address indexed payer, bytes32 paymentHash, uint16 serviceId, uint chgAmount, uint serviceTime, uint finished);\r\n\tevent ServiceOff ( address indexed nodeAddr, address indexed payer, bytes32 paymentHash, uint16 serviceId, uint chgAmount, uint serviceTime, uint finished);\r\n\tevent Feedback   ( address indexed nodeAddr, address indexed payer, bytes32 paymentHash, uint16 serviceId, uint8 feedbackRate);\r\n\r\n    /*\r\n     *  Bridge \r\n     */\r\n    uint64 public networkId; // this network id\r\n    uint256 public minBridgeValue = 1 * 10**18; // min. bridge transfer value (1 CHG)\r\n    uint256 public maxBridgeValue = 10000 * 10**18; // max. bridge transfer value (10000 CHG)\r\n    // uint256 public bridgeAmount = 90000000 * 10**18; // locked and bridged to other blockchain networks amount\r\n\r\n\tstruct Chain {\r\n        bool active;\r\n        string networkName;\r\n\t}\r\n\r\n\tmapping (uint64 => Chain) public chains; // networkId => Chain\r\n\r\n    mapping (bytes32 => bool) public swaps;\r\n\r\n    mapping (address => bool) public isValidator;\r\n\r\n    event Swap(address indexed from, address indexed to, uint256 value, uint64 chainId, bytes32 chainHash);\r\n    event Validated(bytes32 indexed txHash, address indexed account, uint256 value);\r\n\r\n\r\n\t/**\r\n\t * constructor\r\n\t */\r\n    constructor(uint64 _networkId) public {\r\n        owner = msg.sender;\r\n        isValidator[owner] = true;\r\n        networkId = _networkId;\r\n\r\n\t\t/*  initial services  */\r\n\t\tservices[servicesCount] = 'Charg';\r\n\t\tservicesCount++;\r\n\r\n\t\tservices[servicesCount] = 'Parking';\r\n\t\tservicesCount++;\r\n\r\n\t\tservices[servicesCount] = 'Internet';\r\n\t\tservicesCount++;\r\n\r\n        /*  initial chains  */\r\n        chains[5777]    = Chain(true, 'Native Charg Network');\r\n        chains[1]       = Chain(true, 'Ethereum Mainnet');\r\n        chains[56]      = Chain(true, 'Binance Smart Chain');\r\n        chains[128]     = Chain(true, 'Heco Chain');\r\n        chains[137]     = Chain(true, 'Polygon Network');\r\n        chains[32659]   = Chain(true, 'Fusion Network');\r\n        chains[42161]   = Chain(true, 'Arbitrum One Chain');\r\n\r\n        /* Test networks - remove in prod*/\r\n        chains[4777]    = Chain(true, 'Native Charg Testnet');\r\n        chains[3]       = Chain(true, 'Ropsten Testnet');\r\n        chains[4]       = Chain(true, 'Rinkeby Testnet');\r\n        chains[5]       = Chain(true, 'Goerli Testnet');\r\n        chains[97]      = Chain(true, 'BSC Testnet');\r\n        chains[256]     = Chain(true, 'Heco Testnet');\r\n        chains[80001]   = Chain(true, 'Polygon Testnet');\r\n        chains[421611]  = Chain(true, 'Arbitrum Testnet');\r\n    }\r\n\r\n\tfunction() external payable {\r\n\t\t//revert();\r\n\t\tdepositCoins();\r\n\t}\r\n\r\n    function setOwner(address payable newOwner) public {\r\n        require(msg.sender == owner, \"only owner\");\r\n        owner = newOwner;\r\n    }\r\n    \r\n    /* add a new service to the smart contract */\r\n\tfunction addService( string memory name ) public {\r\n        require(msg.sender == owner, \"only owner\");\r\n\t\tservices[servicesCount] = name;\r\n\t\tservicesCount++;\r\n\t}\r\n\r\n\r\n    /* register a new node */\r\n    function registerNode( int128 latitude, int128 longitude, string memory name, string memory location, string memory phone, string memory connector, string memory power, uint chargRate, uint parkRate, uint inetRate) public {\r\n\r\n\t\t// check if node is not registered, or authorized for update\r\n        require ( !registeredNodes[msg.sender].registered || registeredNodes[msg.sender].authorized, \"already registered\" );\r\n\r\n\t\t// check minimal coins balance\r\n        require (msg.sender.balance >= minCoinsBalance);\r\n\r\n\t\tif (!registeredNodes[msg.sender].registered) {\r\n\t\t\tregisteredNodes[msg.sender].registered = true;\r\n\t\t\tregisteredNodes[msg.sender].authorized = true;\r\n\t\t}\r\n\r\n\t\tregisteredNodes[msg.sender].latitude = latitude;\r\n\t\tregisteredNodes[msg.sender].longitude = longitude;\r\n\r\n\t\tregisteredNodes[msg.sender].name = name;\r\n\t\tregisteredNodes[msg.sender].location = location;\r\n\t\tregisteredNodes[msg.sender].phone = phone;\r\n\t\tregisteredNodes[msg.sender].connector = connector;\r\n\t\tregisteredNodes[msg.sender].power = power;\r\n\r\n        if (chargRate > 0) {\r\n\t\t\tnodeService[msg.sender][0].allowed = true;\r\n\t\t\tnodeService[msg.sender][0].stopable = true;\r\n\t\t\tnodeService[msg.sender][0].maxTime = 0;\r\n\t\t\tnodeService[msg.sender][0].rate = chargRate;\r\n\t\t}\r\n\r\n        if (parkRate > 0) {\r\n\t\t\tnodeService[msg.sender][1].allowed = true;\r\n\t\t\tnodeService[msg.sender][1].stopable = true;\r\n\t\t\tnodeService[msg.sender][1].maxTime = 0;\r\n\t\t\tnodeService[msg.sender][1].rate = parkRate;\r\n\t\t}\r\n\r\n        if (inetRate > 0) {\r\n\t\t\tnodeService[msg.sender][2].allowed = true;\r\n\t\t\tnodeService[msg.sender][2].stopable = true;\r\n\t\t\tnodeService[msg.sender][2].maxTime = 0;\r\n\t\t\tnodeService[msg.sender][2].rate = inetRate;\r\n\t\t}\r\n\t\temit NodeRegistered( msg.sender, latitude, longitude, name, location, phone, connector, power );\r\n\t}\r\n\r\n    /* setup the node parameters */\r\n    function setNodeParameter(bytes32 parameterHash, string memory parameterValue) public {\r\n        require (registeredNodes[msg.sender].registered, \"not registered\");\r\n        nodeParameters[msg.sender][parameterHash] = parameterValue;\r\n    }\r\n\t\r\n    /* setup the node services */\r\n\tfunction setupNodeService( uint16 serviceId, bool allowed, bool stopable, uint rate, uint maxTime ) public {\r\n        require (registeredNodes[msg.sender].registered, \"not registered\");\r\n        require (serviceId < servicesCount);\r\n\r\n        nodeService[msg.sender][serviceId].allowed = allowed;\r\n        nodeService[msg.sender][serviceId].stopable = stopable;\r\n        nodeService[msg.sender][serviceId].rate = rate;\r\n        nodeService[msg.sender][serviceId].maxTime = maxTime;\r\n\t}\r\n\r\n\r\n    /* change the node authorization */ \r\n    function modifyNodeAuthorization (address addr, bool authorized) public {\r\n        require(msg.sender == owner, \"only owner\");\r\n        require (registeredNodes[msg.sender].registered, \"not registered\");\r\n        registeredNodes[addr].authorized = authorized;\r\n    }\r\n\r\n    /* set minimal coins balance for the node */ \r\n    function setMinCoinsBalance(uint _newValue) public {\r\n        require(msg.sender == owner, \"only owner\");\r\n\t\tminCoinsBalance = _newValue;\r\n\t}\r\n\r\n\tfunction setMinBridgeValue(uint256 _value) public {\r\n        require(msg.sender == owner, \"only owner\");\r\n        require (_value > 0, \"wrong value\");\r\n        minBridgeValue = _value;\r\n\t}\r\n\r\n\tfunction setMaxBridgeValue(uint256 _value) public {\r\n        require(msg.sender == owner, \"only owner\");\r\n        require (_value > 0, \"wrong value\");\r\n        maxBridgeValue = _value;\r\n\t}\r\n\r\n\tfunction addValidator( address _validator ) public {\r\n        require(msg.sender == owner, \"only owner\");\r\n        isValidator[_validator] = true;\r\n\t}\r\n\r\n\tfunction removeValidator( address _validator ) public {\r\n        require(msg.sender == owner, \"only owner\");\r\n        isValidator[_validator] = false;\r\n\t}\r\n\r\n    /*  cross-chain parameters  */\r\n\tfunction setChain(bool _active, uint64 _networkId, string memory _networkName) public {\r\n        require(msg.sender == owner, \"only owner\");\r\n\t\tchains[_networkId].active = _active;\r\n\t\tchains[_networkId].networkName = _networkName;\r\n\t}\r\n\r\n    function startSwapTo(address _to, uint64 _networkId, bytes32 _chainHash) public payable {\r\n        require(_networkId != networkId, \"swap in the same network not allowed\");\r\n        require(chains[_networkId].active, \"swap not allowed\");\r\n        require(msg.value >= minBridgeValue && msg.value <= maxBridgeValue, \"wrong value\");\r\n        emit Swap(msg.sender, _to, msg.value, _networkId, _chainHash);\r\n    }\r\n\r\n    function startSwap(uint64 _networkId, bytes32 _chainHash) public payable {\r\n        startSwapTo(msg.sender, _networkId, _chainHash);\r\n    }\r\n\r\n    // bridge transactions validation\r\n    function validate(bytes32 txHash, address payable account, uint256 value, uint256 fee) public {\r\n        require (isValidator[msg.sender], \"only validators\");\r\n        require(!swaps[txHash], \"already validated\");\r\n        // transfer balance to account      \r\n        account.transfer(value);\r\n        if (fee > 0) {\r\n            balance[msg.sender] = balance[msg.sender].add(fee);\r\n            //msg.sender.transfer(fee);\r\n        }\r\n        swaps[txHash] = true;\r\n        emit Validated(txHash, account, value);\r\n    }\r\n\r\n\tfunction depositCoins() public payable {\r\n\t\tbalance[msg.sender] = balance[msg.sender].add(msg.value);\r\n\t\temit DepositCoins(msg.sender, msg.value, balance[msg.sender]);\r\n\t}\r\n\r\n\tfunction withdrawCoins(uint amount) public {\r\n\t\trequire(balance[msg.sender] >= amount);\r\n\t\tbalance[msg.sender] = balance[msg.sender].sub(amount);\r\n\t\tmsg.sender.transfer(amount);\r\n\t\temit WithdrawCoins(msg.sender, amount, balance[msg.sender]);\r\n\t}\r\n\r\n\t/*\r\n\t * Method serviceOn\r\n\t * Make an exchange and start service on the node\r\n\t *\r\n\t * nodeAddr - the node which provides service\r\n\t * serviceId - id of the started service, described in Node Service Contract (0-charge, 1-parking, 2-internet ...)\r\n\t * paymentHash - hash of the payment transaction \r\n\t */\r\n\tfunction serviceOn(address nodeAddr, uint16 serviceId, bytes32 paymentHash) public payable returns (bytes32) {\r\n\r\n\t\trequire (registeredNodes[nodeAddr].authorized, 'not athorized'); // the node is registered and authorized\r\n\t\trequire (msg.value > 0, 'wrong value');\r\n        require (balance[nodeAddr].add(nodeAddr.balance) >= minCoinsBalance, 'min balance'); // minimal balance of the node\r\n\t\trequire (nodeService[nodeAddr][serviceId].allowed, 'service not alowed' );\r\n\r\n\t\tif (paymentHash==0) {\r\n\t\t\tpaymentHash = keccak256(abi.encodePacked(msg.sender, now, serviceId));\r\n        }\r\n\r\n\t\trequire (serviceActions[paymentHash].started == 0, 'payment served');\r\n\r\n        uint servTime = msg.value.div(nodeService[nodeAddr][serviceId].rate);\r\n        require ( servTime <= nodeService[nodeAddr][serviceId].maxTime || nodeService[nodeAddr][serviceId].maxTime == 0);\r\n\r\n\t\tbalance[nodeAddr] = balance[nodeAddr].add(msg.value); \r\n\r\n        serviceActions[paymentHash].node = nodeAddr; \r\n        serviceActions[paymentHash].payer = msg.sender; // will allow feedback for the sender\r\n        serviceActions[paymentHash].serviceRate = nodeService[nodeAddr][serviceId].rate;\r\n        serviceActions[paymentHash].serviceId = serviceId;\r\n        serviceActions[paymentHash].started = now;\r\n        serviceActions[paymentHash].finished = now + servTime;\r\n        serviceActions[paymentHash].stopable = nodeService[nodeAddr][serviceId].stopable;\r\n\r\n\t\temit ServiceOn (nodeAddr, msg.sender, paymentHash, serviceId, msg.value, servTime, now + servTime);\r\n\r\n\t\treturn paymentHash;\r\n\t}\r\n\r\n\t/*\r\n\t * Method serviceOff\r\n\t * Turn off the service on the node\r\n\t */\r\n\tfunction serviceOff( bytes32 paymentHash ) public {\r\n\r\n\t\trequire(serviceActions[paymentHash].started > 0\r\n                    && serviceActions[paymentHash].stopable\r\n\t\t\t\t\t&& now < serviceActions[paymentHash].finished \r\n\t\t\t\t\t&& serviceActions[paymentHash].payer == msg.sender);\r\n\r\n\t\tuint time = serviceActions[paymentHash].finished.sub(now);\r\n\t\tuint chgAmount = time.mul(serviceActions[paymentHash].serviceRate);\r\n        serviceActions[paymentHash].finished = now;\r\n\r\n        balance[serviceActions[paymentHash].node] = balance[serviceActions[paymentHash].node].sub(chgAmount);\r\n        //balance[msg.sender] = balance[msg.sender].add(chgAmount);\r\n        msg.sender.transfer(chgAmount);\r\n\r\n\t\temit ServiceOff (serviceActions[paymentHash].node, msg.sender, paymentHash, serviceActions[paymentHash].serviceId, chgAmount, time, now);\r\n\t}\r\n\r\n\t/*\r\n\t * Method sendFeedback\r\n\t * Store feedback of the successful payment transaction in the smart contract\r\n\t * paymentHash - hash of the payment transaction\r\n\t * rate - the node raiting 1..10 points \r\n\t */\r\n\tfunction sendFeedback(bytes32 paymentHash, uint8 feedbackRate, string memory feedbackText) public {\r\n\r\n\t\trequire(serviceActions[paymentHash].payer==msg.sender && serviceActions[paymentHash].feedbackRate==0);\r\n\r\n\t\tserviceActions[paymentHash].feedbackRate = feedbackRate > 10 ? 10 : (feedbackRate < 1 ? 1 : feedbackRate);\r\n\t\tserviceActions[paymentHash].feedbackText = feedbackText;\r\n\t\t\r\n\t\temit Feedback (serviceActions[paymentHash].node, msg.sender, paymentHash, serviceActions[paymentHash].serviceId, serviceActions[paymentHash].feedbackRate);\r\n\t}\r\n}\r\n\r\n",
  "sourcePath": "C:/projects/charg/bridges/chg-bridge/chg-bridge-backend/contracts/ChargCoinService1.sol",
  "compiler": {
    "name": "solc",
    "version": "0.5.0+commit.1d4f565a.Emscripten.clang"
  },
  "schemaVersion": "3.4.1",
  "updatedAt": "2021-12-19T17:08:03.231Z",
  "devdoc": {
    "methods": {}
  },
  "userdoc": {
    "methods": {
      "constructor": "constructor\r"
    }
  }
}