{
  "contractName": "CurrencyRatesContract",
  "abi": [
    {
      "constant": true,
      "inputs": [],
      "name": "currenciesCount",
      "outputs": [
        {
          "name": "",
          "type": "uint256"
        }
      ],
      "payable": false,
      "stateMutability": "view",
      "type": "function"
    },
    {
      "constant": true,
      "inputs": [],
      "name": "owner",
      "outputs": [
        {
          "name": "",
          "type": "address"
        }
      ],
      "payable": false,
      "stateMutability": "view",
      "type": "function"
    },
    {
      "constant": true,
      "inputs": [
        {
          "name": "",
          "type": "uint256"
        }
      ],
      "name": "rates",
      "outputs": [
        {
          "name": "",
          "type": "uint256"
        }
      ],
      "payable": false,
      "stateMutability": "view",
      "type": "function"
    },
    {
      "constant": true,
      "inputs": [
        {
          "name": "",
          "type": "uint256"
        }
      ],
      "name": "currencies",
      "outputs": [
        {
          "name": "networkId",
          "type": "uint64"
        },
        {
          "name": "name",
          "type": "string"
        },
        {
          "name": "symbol",
          "type": "string"
        }
      ],
      "payable": false,
      "stateMutability": "view",
      "type": "function"
    },
    {
      "inputs": [],
      "payable": false,
      "stateMutability": "nonpayable",
      "type": "constructor"
    },
    {
      "payable": true,
      "stateMutability": "payable",
      "type": "fallback"
    },
    {
      "anonymous": false,
      "inputs": [
        {
          "indexed": false,
          "name": "currencyId",
          "type": "uint256"
        },
        {
          "indexed": false,
          "name": "rate",
          "type": "uint256"
        }
      ],
      "name": "RateChanged",
      "type": "event"
    },
    {
      "constant": false,
      "inputs": [
        {
          "name": "networkId",
          "type": "uint64"
        },
        {
          "name": "name",
          "type": "string"
        },
        {
          "name": "symbol",
          "type": "string"
        }
      ],
      "name": "addCurrency",
      "outputs": [],
      "payable": false,
      "stateMutability": "nonpayable",
      "type": "function"
    },
    {
      "constant": false,
      "inputs": [
        {
          "name": "currencyId",
          "type": "uint256"
        },
        {
          "name": "rate",
          "type": "uint256"
        }
      ],
      "name": "setRate",
      "outputs": [],
      "payable": false,
      "stateMutability": "nonpayable",
      "type": "function"
    }
  ],
  "bytecode": "0x608060405260006001553480156200001657600080fd5b506000805433600160a060020a0319909116178155604080516060810182526156a1815281518083018352600a81527f436861726720436f696e000000000000000000000000000000000000000000006020808301919091528083019182528351808501855260038082527f4348470000000000000000000000000000000000000000000000000000000000828401528486019190915260018054875290825293909420825181546001604060020a0319166001604060020a039091161781559051805192949193620000f293908501929190910190620007a5565b506040820151805162000110916002840191602090910190620007a5565b5050600180546000908152600260208181526040808420670de0b6b3a764000090558454815160608101835286815282518084018452600881527f457468657265756d000000000000000000000000000000000000000000000000818601528185019081528351808501855260038082527f45544800000000000000000000000000000000000000000000000000000000008288015283860191909152958301885591870186529383529320825181546001604060020a0319166001604060020a03909116178155925180519295509293620001f39390850192910190620007a5565b506040820151805162000211916002840191602090910190620007a5565b5050604080516060810182526038815281518083018352600c81527f42696e616e636520436f696e00000000000000000000000000000000000000006020808301919091528083019182528351808501855260038082527f424e42000000000000000000000000000000000000000000000000000000000082840152848601919091526001805480820182556000908152918352949020835181546001604060020a0319166001604060020a03909116178155915180519395509193620002e0939085019290910190620007a5565b5060408201518051620002fe916002840191602090910190620007a5565b5050604080516060810182526089815281518083018352600b81527f4d6174696320546f6b656e00000000000000000000000000000000000000000060208083019190915280830191825283518085018552600581527f4d41544943000000000000000000000000000000000000000000000000000000818301528385015260018054808201825560009081526003835294909420835181546001604060020a0319166001604060020a03909116178155915180519395509193620003cb939085019290910190620007a5565b5060408201518051620003e9916002840191602090910190620007a5565b505060408051606081018252617f93815281518083018352600981527f46534e20546f6b656e00000000000000000000000000000000000000000000006020808301919091528083019182528351808501855260038082527f46534e000000000000000000000000000000000000000000000000000000000082840152848601919091526001805480820182556000908152918352949020835181546001604060020a0319166001604060020a03909116178155915180519395509193620004b9939085019290910190620007a5565b5060408201518051620004d7916002840191602090910190620007a5565b505060408051606081018252600080825282518084018452600781527f426974636f696e000000000000000000000000000000000000000000000000006020808301919091528084019182528451808601865260038082527f42544300000000000000000000000000000000000000000000000000000000008284015285870191909152600180548082018255855290825294909220835181546001604060020a0319166001604060020a03909116178155905180519395509093620005a693908501929190910190620007a5565b5060408201518051620005c4916002840191602090910190620007a5565b505060408051606081018252600080825282518084018452600881527f4c697465636f696e0000000000000000000000000000000000000000000000006020808301919091528084019182528451808601865260038082527f4c544300000000000000000000000000000000000000000000000000000000008284015285870191909152600180548082018255855290825294909220835181546001604060020a0319166001604060020a039091161781559051805193955090936200069393908501929190910190620007a5565b5060408201518051620006b1916002840191602090910190620007a5565b505060408051606081018252600080825282518084018452600881527f446f6765636f696e00000000000000000000000000000000000000000000000060208083019190915280840191825284518086018652600481527f444f474500000000000000000000000000000000000000000000000000000000818301528486015260018054808201825584526003825294909220835181546001604060020a0319166001604060020a039091161781559051805193955090936200077d93908501929190910190620007a5565b50604082015180516200079b916002840191602090910190620007a5565b509050506200084a565b828054600181600116156101000203166002900490600052602060002090601f016020900481019282601f10620007e857805160ff191683800117855562000818565b8280016001018555821562000818579182015b8281111562000818578251825591602001919060010190620007fb565b50620008269291506200082a565b5090565b6200084791905b8082111562000826576000815560010162000831565b90565b6107d9806200085a6000396000f3fe6080604052600436106100775763ffffffff7c010000000000000000000000000000000000000000000000000000000060003504166346df2ccb811461007c57806348e48a91146100ae5780634c00f570146101f95780638da5cb5b14610220578063dd418ae21461025e578063f6d1c27114610288575b600080fd5b34801561008857600080fd5b506100ac6004803603604081101561009f57600080fd5b50803590602001356103ab565b005b3480156100ba57600080fd5b506100ac600480360360608110156100d157600080fd5b67ffffffffffffffff82351691908101906040810160208201356401000000008111156100fd57600080fd5b82018360208201111561010f57600080fd5b8035906020019184600183028401116401000000008311171561013157600080fd5b91908080601f016020809104026020016040519081016040528093929190818152602001838380828437600092019190915250929594936020810193503591505064010000000081111561018457600080fd5b82018360208201111561019657600080fd5b803590602001918460018302840111640100000000831117156101b857600080fd5b91908080601f016020809104026020016040519081016040528093929190818152602001838380828437600092019190915250929550610482945050505050565b34801561020557600080fd5b5061020e610597565b60408051918252519081900360200190f35b34801561022c57600080fd5b5061023561059d565b6040805173ffffffffffffffffffffffffffffffffffffffff9092168252519081900360200190f35b34801561026a57600080fd5b5061020e6004803603602081101561028157600080fd5b50356105b9565b34801561029457600080fd5b506102b2600480360360208110156102ab57600080fd5b50356105cb565b604051808467ffffffffffffffff1667ffffffffffffffff1681526020018060200180602001838103835285818151815260200191508051906020019080838360005b8381101561030d5781810151838201526020016102f5565b50505050905090810190601f16801561033a5780820380516001836020036101000a031916815260200191505b50838103825284518152845160209182019186019080838360005b8381101561036d578181015183820152602001610355565b50505050905090810190601f16801561039a5780820380516001836020036101000a031916815260200191505b509550505050505060405180910390f35b60005473ffffffffffffffffffffffffffffffffffffffff16331461043157604080517f08c379a000000000000000000000000000000000000000000000000000000000815260206004820152600a60248201527f6f6e6c79206f776e657200000000000000000000000000000000000000000000604482015290519081900360640190fd5b600082815260026020908152604091829020839055815184815290810183905281517f4ac9052a820bf4f8c02d7588587cae835573b5b99ea7ad4ca002f17f319f7186929181900390910190a15050565b60005473ffffffffffffffffffffffffffffffffffffffff16331461050857604080517f08c379a000000000000000000000000000000000000000000000000000000000815260206004820152600a60248201527f6f6e6c79206f776e657200000000000000000000000000000000000000000000604482015290519081900360640190fd5b6040805160608101825267ffffffffffffffff85811682526020808301868152838501869052600180548082018255600090815260038452959095208451815467ffffffffffffffff1916941693909317835551805193949293610573938501929190910190610712565b506040820151805161058f916002840191602090910190610712565b505050505050565b60015481565b60005473ffffffffffffffffffffffffffffffffffffffff1681565b60026020526000908152604090205481565b6003602090815260009182526040918290208054600180830180548651600261010094831615949094026000190190911692909204601f810186900486028301860190965285825267ffffffffffffffff9092169492939092908301828280156106765780601f1061064b57610100808354040283529160200191610676565b820191906000526020600020905b81548152906001019060200180831161065957829003601f168201915b50505060028085018054604080516020601f60001961010060018716150201909416959095049283018590048502810185019091528181529596959450909250908301828280156107085780601f106106dd57610100808354040283529160200191610708565b820191906000526020600020905b8154815290600101906020018083116106eb57829003601f168201915b5050505050905083565b828054600181600116156101000203166002900490600052602060002090601f016020900481019282601f1061075357805160ff1916838001178555610780565b82800160010185558215610780579182015b82811115610780578251825591602001919060010190610765565b5061078c929150610790565b5090565b6107aa91905b8082111561078c5760008155600101610796565b9056fea165627a7a72305820a2826ebc83056a10a8a0cdd8cbafb025bf7581b5e5661fd6b6a78cf7cfbcdec80029",
  "source": "pragma solidity ^0.5.0;\r\n\r\n/**\r\n * @title Currency Oracle\r\n * @dev Stores currencies rates from outside\r\n */\r\ncontract CurrencyRatesContract {\r\n\r\n    address payable public owner;\r\n    uint public currenciesCount = 0;\r\n\r\n    mapping (uint => uint) public rates;\r\n    mapping (uint => Currency) public currencies;\r\n\r\n    struct Currency {\r\n        uint64 networkId;\r\n        string name;\r\n        string symbol;\r\n    }\r\n\r\n\tevent RateChanged  ( uint currencyId, uint rate );\r\n\r\n\t/**\r\n\t * constructor\r\n\t */\r\n    constructor() public {\r\n        owner = msg.sender;\r\n\r\n\t\t// default currencies\r\n        currencies[currenciesCount] = Currency(22177, 'Charg Coin', 'CHG');\r\n        rates[currenciesCount] = 1 * 10**18;\r\n        currenciesCount++;\r\n\t\tcurrencies[currenciesCount++] = Currency(1, 'Ethereum', 'ETH');\r\n\t\tcurrencies[currenciesCount++] = Currency(56, 'Binance Coin', 'BNB');\r\n\t\tcurrencies[currenciesCount++] = Currency(137, 'Matic Token', 'MATIC');\r\n\t\tcurrencies[currenciesCount++] = Currency(32659, 'FSN Token', 'FSN');\r\n\r\n\t\tcurrencies[currenciesCount++] = Currency(0, 'Bitcoin', 'BTC');\r\n\t\tcurrencies[currenciesCount++] = Currency(0, 'Litecoin', 'LTC');\r\n\t\tcurrencies[currenciesCount++] = Currency(0, 'Dogecoin', 'DOGE');\r\n    }\r\n\r\n\tfunction() external payable {\r\n\t\trevert();\r\n\t}\r\n\r\n\tfunction addCurrency( uint64 networkId, string memory name, string memory symbol ) public {\r\n        require(msg.sender == owner, \"only owner\");\r\n\t\tcurrencies[currenciesCount++] = Currency(networkId, name, symbol);\r\n\t}\r\n\r\n\tfunction setRate( uint currencyId, uint rate ) public {\r\n        require(msg.sender == owner, \"only owner\");\r\n\t\trates[currencyId] = rate;\r\n        emit RateChanged (currencyId, rate);\r\n\t}\r\n}",
  "sourcePath": "C:/projects/charg/bridges/chg-bridge/chg-bridge-backend/contracts/CurrencyRatesContract.sol",
  "compiler": {
    "name": "solc",
    "version": "0.5.0+commit.1d4f565a.Emscripten.clang"
  },
  "schemaVersion": "3.4.1",
  "updatedAt": "2021-12-17T15:52:56.919Z",
  "devdoc": {
    "details": "Stores currencies rates from outside\r",
    "methods": {},
    "title": "Currency Oracle\r"
  },
  "userdoc": {
    "methods": {
      "constructor": "constructor\r"
    }
  }
}